{
  "contractName": "Lottery",
  "abi": [
    {
      "constant": true,
      "inputs": [],
      "name": "manager",
      "outputs": [
        {
          "name": "",
          "type": "address"
        }
      ],
      "payable": false,
      "stateMutability": "view",
      "type": "function"
    },
    {
      "constant": true,
      "inputs": [],
      "name": "winner",
      "outputs": [
        {
          "name": "",
          "type": "address"
        }
      ],
      "payable": false,
      "stateMutability": "view",
      "type": "function"
    },
    {
      "constant": true,
      "inputs": [
        {
          "name": "",
          "type": "uint256"
        }
      ],
      "name": "players",
      "outputs": [
        {
          "name": "",
          "type": "address"
        }
      ],
      "payable": false,
      "stateMutability": "view",
      "type": "function"
    },
    {
      "inputs": [],
      "payable": false,
      "stateMutability": "nonpayable",
      "type": "constructor"
    },
    {
      "constant": false,
      "inputs": [],
      "name": "enter",
      "outputs": [],
      "payable": true,
      "stateMutability": "payable",
      "type": "function"
    },
    {
      "constant": false,
      "inputs": [],
      "name": "pickWinner",
      "outputs": [],
      "payable": false,
      "stateMutability": "nonpayable",
      "type": "function"
    },
    {
      "constant": true,
      "inputs": [],
      "name": "listPlayers",
      "outputs": [
        {
          "name": "",
          "type": "address[]"
        }
      ],
      "payable": false,
      "stateMutability": "view",
      "type": "function"
    }
  ],
  "bytecode": "0x608060405234801561001057600080fd5b50336000806101000a81548173ffffffffffffffffffffffffffffffffffffffff021916908373ffffffffffffffffffffffffffffffffffffffff1602179055506107e3806100606000396000f3fe6080604052600436106100555760003560e01c8063481c6a751461005a5780635d495aea146100b157806364605d51146100c8578063dfbf53ae14610134578063e97dcb621461018b578063f71d96cb14610195575b600080fd5b34801561006657600080fd5b5061006f610210565b604051808273ffffffffffffffffffffffffffffffffffffffff1673ffffffffffffffffffffffffffffffffffffffff16815260200191505060405180910390f35b3480156100bd57600080fd5b506100c6610235565b005b3480156100d457600080fd5b506100dd61044b565b6040518080602001828103825283818151815260200191508051906020019060200280838360005b83811015610120578082015181840152602081019050610105565b505050509050019250505060405180910390f35b34801561014057600080fd5b506101496104d9565b604051808273ffffffffffffffffffffffffffffffffffffffff1673ffffffffffffffffffffffffffffffffffffffff16815260200191505060405180910390f35b6101936104ff565b005b3480156101a157600080fd5b506101ce600480360360208110156101b857600080fd5b81019080803590602001909291905050506105e3565b604051808273ffffffffffffffffffffffffffffffffffffffff1673ffffffffffffffffffffffffffffffffffffffff16815260200191505060405180910390f35b6000809054906101000a900473ffffffffffffffffffffffffffffffffffffffff1681565b6000809054906101000a900473ffffffffffffffffffffffffffffffffffffffff1673ffffffffffffffffffffffffffffffffffffffff163373ffffffffffffffffffffffffffffffffffffffff16146102da576040517f08c379a000000000000000000000000000000000000000000000000000000000815260040180806020018281038252602981526020018061078f6029913960400191505060405180910390fd5b60006002805490506102ea61061f565b816102f157fe5b0690506002818154811061030157fe5b9060005260206000200160009054906101000a900473ffffffffffffffffffffffffffffffffffffffff1673ffffffffffffffffffffffffffffffffffffffff166108fc3073ffffffffffffffffffffffffffffffffffffffff16319081150290604051600060405180830381858888f19350505050158015610388573d6000803e3d6000fd5b506002818154811061039657fe5b9060005260206000200160009054906101000a900473ffffffffffffffffffffffffffffffffffffffff16600160006101000a81548173ffffffffffffffffffffffffffffffffffffffff021916908373ffffffffffffffffffffffffffffffffffffffff16021790555060006040519080825280602002602001820160405280156104315781602001602082028038833980820191505090505b50600290805190602001906104479291906106c1565b5050565b606060028054806020026020016040519081016040528092919081815260200182805480156104cf57602002820191906000526020600020905b8160009054906101000a900473ffffffffffffffffffffffffffffffffffffffff1673ffffffffffffffffffffffffffffffffffffffff1681526020019060010190808311610485575b5050505050905090565b600160009054906101000a900473ffffffffffffffffffffffffffffffffffffffff1681565b662386f26fc10000341161057b576040517f08c379a00000000000000000000000000000000000000000000000000000000081526004018080602001828103825260188152602001807f4d696e696d756d20626574206973202e3031204574686572000000000000000081525060200191505060405180910390fd5b60023390806001815401808255809150509060018203906000526020600020016000909192909190916101000a81548173ffffffffffffffffffffffffffffffffffffffff021916908373ffffffffffffffffffffffffffffffffffffffff16021790555050565b600281815481106105f057fe5b906000526020600020016000915054906101000a900473ffffffffffffffffffffffffffffffffffffffff1681565b60004442600260405160200180848152602001838152602001828054801561069c57602002820191906000526020600020905b8160009054906101000a900473ffffffffffffffffffffffffffffffffffffffff1673ffffffffffffffffffffffffffffffffffffffff1681526020019060010190808311610652575b505093505050506040516020818303038152906040528051906020012060001c905090565b82805482825590600052602060002090810192821561073a579160200282015b828111156107395782518260006101000a81548173ffffffffffffffffffffffffffffffffffffffff021916908373ffffffffffffffffffffffffffffffffffffffff160217905550916020019190600101906106e1565b5b509050610747919061074b565b5090565b61078b91905b8082111561078757600081816101000a81549073ffffffffffffffffffffffffffffffffffffffff021916905550600101610751565b5090565b9056fe6f6e6c7920746865206d616e6167657220636e612061636365737320746869732066756e6374696f6ea165627a7a7230582006f850f9b122f7fd35f1810b71367dcf88f4bddd838c4783565580db45d4d0690029",
  "source": "pragma solidity >=0.4.24 <0.6.0;\n\ncontract Lottery {\n  address public manager;\n  address public winner;\n  address payable[] public players;\n\n  constructor() public {\n    manager = msg.sender;\n  }\n\n  function enter() public payable {\n    require(msg.value > .01 ether, \"Minimum bet is .01 Ether\");\n    players.push(msg.sender);\n  }\n\n  function pickWinner() public restricted {\n    uint index = random() % players.length;\n    players[index].transfer(address(this).balance);\n    winner = players[index];\n    players = new address payable[](0);\n  }\n\n  function listPlayers() public view returns (address payable[] memory ){\n    return players;\n  }\n\n  function random() private view returns (uint){\n    return uint(keccak256(abi.encodePacked(block.difficulty, block.timestamp, players)));\n  }\n\n  modifier restricted() {\n    require(msg.sender == manager, \"only the manager cna access this function\");\n    _;\n  }\n}",
  "sourcePath": "/Users/ET/truffle_training/lottery/contracts/Lottery.sol",
  "compiler": {
    "name": "solc",
    "version": "0.5.8+commit.23d335f2.Emscripten.clang"
  },
  "schemaVersion": "3.0.16",
  "updatedAt": "2019-11-26T18:50:21.793Z",
  "devdoc": {
    "methods": {}
  },
  "userdoc": {
    "methods": {}
  }
}